{
  "contractName": "Bhoomi",
  "abi": [
    {
      "constant": true,
      "inputs": [
        {
          "name": "val",
          "type": "uint256"
        },
        {
          "name": "pk",
          "type": "uint256"
        },
        {
          "name": "n",
          "type": "uint256"
        }
      ],
      "name": "simplifyPower",
      "outputs": [
        {
          "name": "",
          "type": "uint256"
        }
      ],
      "payable": false,
      "stateMutability": "view",
      "type": "function"
    },
    {
      "constant": false,
      "inputs": [
        {
          "name": "landNo",
          "type": "uint256"
        }
      ],
      "name": "validateLandRecord",
      "outputs": [
        {
          "name": "",
          "type": "uint256"
        }
      ],
      "payable": false,
      "stateMutability": "nonpayable",
      "type": "function"
    },
    {
      "constant": false,
      "inputs": [
        {
          "name": "_landNo",
          "type": "uint256"
        },
        {
          "name": "res",
          "type": "uint256[]"
        }
      ],
      "name": "setRestriction",
      "outputs": [],
      "payable": false,
      "stateMutability": "nonpayable",
      "type": "function"
    },
    {
      "constant": false,
      "inputs": [
        {
          "name": "_landNo",
          "type": "uint256"
        },
        {
          "name": "i",
          "type": "uint256"
        }
      ],
      "name": "getRestriction",
      "outputs": [
        {
          "name": "",
          "type": "uint256"
        }
      ],
      "payable": false,
      "stateMutability": "nonpayable",
      "type": "function"
    },
    {
      "constant": false,
      "inputs": [
        {
          "name": "_landNo",
          "type": "uint256"
        },
        {
          "name": "_sellerAadharNo",
          "type": "uint256"
        },
        {
          "name": "_buyerAadharNo",
          "type": "uint256"
        },
        {
          "name": "buyersName",
          "type": "bytes32"
        },
        {
          "name": "buyersPan",
          "type": "bytes32"
        },
        {
          "name": "buyersPublicKey",
          "type": "uint256"
        },
        {
          "name": "msg",
          "type": "uint256[]"
        },
        {
          "name": "cipherText",
          "type": "uint256[]"
        },
        {
          "name": "n",
          "type": "uint256"
        },
        {
          "name": "size",
          "type": "uint256"
        }
      ],
      "name": "sellLand",
      "outputs": [
        {
          "name": "",
          "type": "uint256"
        }
      ],
      "payable": false,
      "stateMutability": "nonpayable",
      "type": "function"
    },
    {
      "constant": true,
      "inputs": [
        {
          "name": "msg",
          "type": "uint256[]"
        },
        {
          "name": "cipherText",
          "type": "uint256[]"
        },
        {
          "name": "_publicKey",
          "type": "uint256"
        },
        {
          "name": "n",
          "type": "uint256"
        },
        {
          "name": "size",
          "type": "uint256"
        }
      ],
      "name": "decrypt",
      "outputs": [
        {
          "name": "",
          "type": "bool"
        }
      ],
      "payable": false,
      "stateMutability": "view",
      "type": "function"
    },
    {
      "constant": false,
      "inputs": [
        {
          "name": "_landNo",
          "type": "uint256"
        },
        {
          "name": "_name",
          "type": "bytes32"
        },
        {
          "name": "_aadharNo",
          "type": "uint256"
        },
        {
          "name": "_panNo",
          "type": "bytes32"
        },
        {
          "name": "publicKey",
          "type": "uint256"
        }
      ],
      "name": "setOwner",
      "outputs": [
        {
          "name": "",
          "type": "bytes32"
        }
      ],
      "payable": false,
      "stateMutability": "nonpayable",
      "type": "function"
    },
    {
      "constant": true,
      "inputs": [
        {
          "name": "landNo",
          "type": "uint256"
        }
      ],
      "name": "getOwner",
      "outputs": [
        {
          "name": "",
          "type": "bytes32"
        },
        {
          "name": "",
          "type": "uint256"
        },
        {
          "name": "",
          "type": "bytes32"
        },
        {
          "name": "",
          "type": "uint256"
        }
      ],
      "payable": false,
      "stateMutability": "view",
      "type": "function"
    },
    {
      "inputs": [],
      "payable": false,
      "stateMutability": "nonpayable",
      "type": "constructor"
    }
  ],
  "bytecode": "0x606060405260016000600181526020019081526020016000206002600082015481600001906000191690556001820154816001015560028201548160020190600019169055600382015481600301555050341561005b57600080fd5b7f61626364000000000000000000000000000000000000000000000000000000006002600001816000191690555060016002600101819055507f616263640000000000000000000000000000000000000000000000000000000060028001816000191690555060006007600001819055506006600080815260200190815260200160002080548060010182816100f1919061015d565b916000526020600020900160006007909190915060008201548160000155505050600660008081526020019081526020016000208054806001018281610137919061015d565b9160005260206000209001600060079091909150600082015481600001555050506101b0565b815481835581811511610184578183600052602060002091820191016101839190610189565b5b505050565b6101ad91905b808211156101a9576000808201600090555060010161018f565b5090565b90565b6108c8806101bf6000396000f30060606040526004361061008e576000357c0100000000000000000000000000000000000000000000000000000000900463ffffffff16806318b2a22e146100935780632e786fba146100dc5780633b743e03146101135780633dfce2f41461017657806383cda4a7146101b65780638de66528146102b4578063c002c9ab14610381578063c41a360a146103ec575b600080fd5b341561009e57600080fd5b6100c66004808035906020019091908035906020019091908035906020019091905050610448565b6040518082815260200191505060405180910390f35b34156100e757600080fd5b6100fd60048080359060200190919050506104e4565b6040518082815260200191505060405180910390f35b341561011e57600080fd5b610174600480803590602001909190803590602001908201803590602001908080602002602001604051908101604052809392919081815260200183836020028082843782019150505050505091905050610564565b005b341561018157600080fd5b6101a060048080359060200190919080359060200190919050506105ed565b6040518082815260200191505060405180910390f35b34156101c157600080fd5b61029e600480803590602001909190803590602001909190803590602001909190803560001916906020019091908035600019169060200190919080359060200190919080359060200190820180359060200190808060200260200160405190810160405280939291908181526020018383602002808284378201915050505050509190803590602001908201803590602001908080602002602001604051908101604052809392919081815260200183836020028082843782019150505050505091908035906020019091908035906020019091905050610626565b6040518082815260200191505060405180910390f35b34156102bf57600080fd5b61036760048080359060200190820180359060200190808060200260200160405190810160405280939291908181526020018383602002808284378201915050505050509190803590602001908201803590602001908080602002602001604051908101604052809392919081815260200183836020028082843782019150505050505091908035906020019091908035906020019091908035906020019091905050610713565b604051808215151515815260200191505060405180910390f35b341561038c57600080fd5b6103ce60048080359060200190919080356000191690602001909190803590602001909190803560001916906020019091908035906020019091905050610789565b60405180826000191660001916815260200191505060405180910390f35b34156103f757600080fd5b61040d6004808035906020019091905050610808565b604051808560001916600019168152602001848152602001836000191660001916815260200182815260200194505050505060405180910390f35b600080600080600186141561045f578693506104da565b600192505b848310156104d9578483880a1015156104cc57828681151561048257fe5b049150828681151561049057fe5b069050848582890a8115156104a157fe5b066104ba87868b0a8115156104b257fe5b068589610448565b028115156104c457fe5b0693506104da565b8280600101935050610464565b5b5050509392505050565b600080600090505b6006600084815260200190815260200160002080549050811015610559576001600660008581526020019081526020016000208281548110151561052c57fe5b906000526020600020900160000154141561054c5760018101915061055e565b80806001019150506104ec565b600091505b50919050565b600080600091505b82518210156105e757828281518110151561058357fe5b9060200190602002015181600001819055506006600085815260200190815260200160002080548060010182816105ba9190610849565b9160005260206000209001600083909190915060008201548160000155505050818060010192505061056c565b50505050565b6000600660008481526020019081526020016000208281548110151561060f57fe5b906000526020600020900160000154905092915050565b60008060006106348d610808565b9350509250508b8214151561064c5760019250610703565b6001151561065d8888848989610713565b151514151561066f5760019250610703565b600061067a8e6104e4565b14151561068a5760029250610703565b89600160008f815260200190815260200160002060000181600019169055508a600160008f81526020019081526020016000206001018190555088600160008f8152602001908152602001600020600201816000191690555087600160008f815260200190815260200160002060030181905550600092505b50509a9950505050505050505050565b600080600090505b8281101561077a57868181518110151561073157fe5b9060200190602002015161075d878381518110151561074c57fe5b906020019060200201518787610448565b14151561076d576000915061077f565b808060010191505061071b565b600191505b5095945050505050565b6000846001600088815260200190815260200160002060000181600019169055508360016000888152602001908152602001600020600101819055508260016000888152602001908152602001600020600201816000191690555081600160008881526020019081526020016000206003018190555095945050505050565b600080600080600060016000878152602001908152602001600020905080600001548160010154826002015483600301549450945094509450509193509193565b8154818355818115116108705781836000526020600020918201910161086f9190610875565b5b505050565b61089991905b80821115610895576000808201600090555060010161087b565b5090565b905600a165627a7a72305820d7697afae96ce4cf67a7cdad2fc33600972d9b611e5dbb18a697f89f5992ecc50029",
  "source": "pragma solidity ^0.4.18;\n\ncontract Bhoomi{\n    //properties of the Owner or Details\n    struct Owner{\n      bytes32 name;\n      uint aadharNo;\n      bytes32 panNo;\n      uint publicKey;\n\n    }\n    //putting the restrictions on the landNo\n    function setRestriction(uint _landNo, uint[] res) public {\n\n        for(uint i=0;i < res.length;i++){\n            land st;\n            st.val = res[i];\n            restrict[_landNo].push(st);\n        }\n    }\n    function getRestriction(uint _landNo,uint i) public returns(uint){\n        return restrict[_landNo][i].val;\n    }\n    bytes32 a;\n\n    //set new Owner which will be deprecated in the near future\n    //@TODO:inefficient currently cause storing land and users details can be seperated\n    function setOwner(uint _landNo,bytes32 _name,uint _aadharNo,bytes32 _panNo,uint publicKey) public returns (bytes32){\n      userDetails[_landNo].name = _name;\n      userDetails[_landNo].aadharNo = _aadharNo;\n      userDetails[_landNo].panNo = _panNo;\n      userDetails[_landNo].publicKey = publicKey;\n      /* a = sha256(publicKey,privateKey,101010);\n      return sha256(a,publicKey); */\n    }\n\n    //mapping of userdetails\n    mapping(uint => Owner) userDetails;\n    Owner t = userDetails[1];\n\n    //land structure for the restriction\n    struct land{\n      uint val;\n    }\n\n    //land elements landNo => restrictions\n    mapping(uint => land[])  restrict;\n    land struct1;\n    //initializing for testing\n    //the following code has to be commented\n    function  Bhoomi() public {\n      t.name = \"abcd\";\n      t.aadharNo = 1;\n      t.panNo = \"abcd\";\n      struct1.val = 0;\n      restrict[0].push(struct1);\n      restrict[0].push(struct1);\n    }\n    //structure containing the details or conflicts of an account\n\n    function validateLandRecord(uint landNo) public returns (uint){\n      for(uint i = 0;i < restrict[landNo].length;i++){\n        if(restrict[landNo][i].val == 1){\n          return (i+1);\n        }\n      }\n      return 0;\n    }\n\n\n    //modifier to check the vaildity of the landNo\n\n    //retreiving the owner Details of the land\n    function getOwner(uint landNo) public constant returns (bytes32,uint,bytes32,uint){\n      Owner  owner =  userDetails[landNo];\n\n      return (owner.name, owner.aadharNo, owner.panNo, owner.publicKey);\n      /* return (\"ancd\",123,\"sada\"); */\n    }\n\n    //a person wants to sell his land includes validation with RSA\n    function sellLand(uint _landNo,uint _sellerAadharNo,uint _buyerAadharNo,bytes32 buyersName,bytes32 buyersPan,uint buyersPublicKey,uint[] msg,uint[] cipherText,uint n,uint size) public  returns(uint){\n           var(, sellerAadharNo, , d)= getOwner(_landNo);\n\n           //checking the Owner of the land\n           if(sellerAadharNo != _sellerAadharNo){\n            return 1;\n          }\n          if(decrypt(msg, cipherText, d, n, size) != true){\n            return 1;\n          }\n          /*0 -> success\n            1 ->conflicts\n            */\n        if(validateLandRecord(_landNo) != 0){\n              return(2);\n          }\n        else{\n          userDetails[_landNo].name = buyersName ;\n          userDetails[_landNo].aadharNo = _buyerAadharNo;\n          userDetails[_landNo].panNo = buyersPan;\n          userDetails[_landNo].publicKey = buyersPublicKey;\n          return 0;\n        }\n      }\n      function simplifyPower(uint val,uint pk,uint n) public constant returns (uint){\n        if(pk == 1){\n          return val;\n        }\n\n        for(uint j = 1;j<(n);j++){\n          if((val ** j ) >= n){\n            uint pw = uint(pk/j);\n            uint rem = pk%j;\n            return ((simplifyPower((val ** j) % n,pw,n) * ((val ** rem) % n)) % n);\n\n          }\n          else{\n            continue;\n          }\n        }\n      }\n      function decrypt(uint[] msg,uint[] cipherText,uint _publicKey,uint n,uint size) public  constant returns (bool){\n          for(uint i =0;i<size;i++){\n            if(simplifyPower(cipherText[i], _publicKey, n) != msg[i]){\n              return false;\n            }\n          }\n        return true;\n      }\n}\n",
  "sourcePath": "/media/undefined/needs/hackathon/contracts/Bhoomi.sol",
  "compiler": {
    "name": "solc",
    "version": "0.4.18+commit.9cf6e910.Emscripten.clang"
  },
  "schemaVersion": "1.0.1",
  "updatedAt": "2018-01-22T10:35:13.564Z"
}